:020000040800F2
:100000003807002029020008652D0008852B00080C
:10001000612D000821040008493600080000000096
:10002000000000000000000000000000D92D0008C2
:100030004504000800000000D52D0008312E0008FE
:10004000430200084302000843020008430200087C
:10005000430200084302000843020008430200086C
:10006000430200084302000843020008430200085C
:10007000430200084302000843020008430200084C
:100080004302000843020008430200083504000848
:100090002504000843020008430200084302000848
:1000A000430200084302000843020008430200081C
:1000B0004302000843020008000000004302000859
:1000C0004302000800000000000000004302000896
:1000D0000000000043020008430200084302000839
:1000E0004302000843020008000000000000000076
:1000F0000000000000000000000000000000000000
:1001000000000000000000000000000000000000EF
:100110000000000000000000430200084302000845
:1001200000000000000000000000000000000000CF
:1001300000000000000000000000000000000000BF
:1001400043020008430200080000000043020008C8
:10015000430200084302000843020008430200086B
:1001600043020008430200080000000000000000F5
:10017000000000000000000000000000000000007F
:10018000000000004302000800F002F800F03CF814
:100190000AA090E8000C82448344AAF10107DA45E2
:1001A00001D100F031F8AFF2090EBAE80F0013F0F8
:1001B000010F18BFFB1A43F0010318475037000026
:1001C00070370000103A24BF78C878C1FAD85207B7
:1001D00024BF30C830C144BF04680C6070470000C1
:1001E0000023002400250026103A28BF78C1FBD840
:1001F000520728BF30C148BF0B6070471FB503F0DE
:1002000060FB1FBD10B510BD00F0D0F81146FFF720
:10021000F5FF03F0B7FA00F0EEF803B4FFF7F2FFD2
:1002200003BC00F0F5F80000094880470948004782
:10023000FEE7FEE7FEE7FEE7FEE7FEE7FEE7FEE796
:10024000FEE7FEE704480549054A064B70470000F3
:10025000A52E000889010008380100203807002079
:10026000380300203803002053EA020C00F06980B4
:100270002DE9F04B4FF00006002B1FBFB3FA83F5BA
:1002800003FA05F424FA05F65E4012BF1643B2FAEB
:1002900082F502FA05F4C5F120051EBF22FA05FC1D
:1002A00044EA0C04203556EA044C4FEA144418BFC3
:1002B000641C4FF000084FF00009904271EB030CF2
:1002C00039D3002919BFB1FA81F701FA07F6B0FA5C
:1002D00080F700FA07F6C7F120071EBF20FA07FCD7
:1002E00046EA0C062037B6FBF4FCA7EB0507103FE7
:1002F00007F01F0BCBF120062CFA06F60CFA0BFBCD
:1003000044BFB3460026202FA4BF5E464FF0000B2B
:100310005BEA060C08BF4FF0010B19EB0B0948EB29
:100320000608ABFB027C06FB02CC0BFB03CCC01B1C
:1003300071EB0C01C1E70B46024641464846BDE859
:10034000F08B13B5084318BF4FF0FF300146AFF3F1
:100350000080BDE81C4070474FF0000200B5134616
:1003600094469646203922BFA0E80C50A0E80C50D5
:10037000B1F12001BFF4F7AF090728BFA0E80C5086
:1003800048BF0CC05DF804EB890028BF40F8042B7F
:1003900008BF704748BF20F8022B11F0804F18BFEC
:1003A00000F8012B7047704770477047754600F0A2
:1003B0002BF8AE4605006946534620F007008546F7
:1003C00018B020B5FFF73EFFBDE820404FF0000613
:1003D0004FF000074FF000084FF0000BAC46ACE8C0
:1003E000C009ACE8C009ACE8C009ACE8C00921F01C
:1003F00007018D46704710B50446AFF300802046D4
:10040000BDE81040FFF709BF00487047100000200A
:1004100001491820ABBEFEE726000200704700002D
:10042000FFE7FEE780B540F2BC00C2F2000000F03A
:10043000EDFA80BD80B540F2BC00C2F2000000F0D1
:10044000E5FA80BD7047000081B0EFF3108072B60E
:100450000090FFE7FEE7000084B00290019102984F
:1004600090F820008DF803009DF80300012805D0C6
:10047000FFE79DF8030002280AD1FFE7019A0298DE
:10048000016848691043486100208DF80F0008E0BA
:100490000299486A40F48020486201208DF80F00DC
:1004A000FFE79DF80F0004B07047000088B0069089
:1004B000059104920393069890F820008DF80700A8
:1004C00006980068806800900598806808B9FFE782
:1004D00000E0FFE79DF80700012806D0FFE79DF840
:1004E0000700022840F08080FFE79DF803004007E6
:1004F00000280CD4FFE79DF803000007002806D46D
:10050000FFE79DF80300C006002864D5FFE70098C8
:10051000C0F30160029002990120884003990860AD
:100520000598806868B9FFE705980168C06840EAE7
:10053000415006990968029A01EB0211C1F8800145
:100540000EE005994A688868C96840EAC200084315
:1005500006990968029A01EB0211C1F88001FFE7D0
:100560000598006906990968029A01EB0211C1F821
:1005700084010598007D01280CD1FFE706980068EA
:10058000029900EB0111D1F8840140F48070C1F8A8
:100590008401FFE70498406806990968029A01EB14
:1005A0000211C1F88C010498006806990968029A42
:1005B00001EB0211C1F8880106980068029900EB6E
:1005C0000111D1F8800140F00100C1F88001002044
:1005D0008DF81F0011E00699486A40F40010486247
:1005E00001208DF81F0008E00699486A40F4802039
:1005F000486201208DF81F00FFE79DF81F0008B03A
:100600007047000086B00490039104980068019040
:10061000049890F820008DF803009DF8030001284D
:1006200006D0FFE79DF80300022840F09B80FFE71B
:100630000199D1F8000240F00100C1F800020398CE
:10064000406900F01F01012088400290029A019940
:10065000D1F81C029043C1F81C020398C069F0B99C
:10066000FFE7029A0199D1F80C029043C1F80C02FD
:10067000039A9088D168526940EA0140019901EBE0
:10068000C201C1F84002039A10889168526940EA99
:100690000140019901EBC201C1F84402FFE7039850
:1006A000C06901281ED1FFE7029A0199D1F80C0216
:1006B0001043C1F80C02039A90881168526940EA0D
:1006C0000140019901EBC201C1F84002039A9089EF
:1006D0009168526940EA0140019901EBC201C1F8F9
:1006E0004402FFE70398806940B9FFE7029A019945
:1006F000D1F804029043C1F8040207E0029A01997C
:10070000D1F804021043C1F80402FFE7039800691E
:1007100040B9FFE7029A0199D1F814029043C1F859
:10072000140207E0029A0199D1F814021043C1F8AB
:100730001402FFE70398006A012808D1FFE7029A34
:100740000199D1F81C021043C1F81C02FFE701997E
:10075000D1F8000220F00100C1F8000200208DF85D
:10076000170008E00499486A40F48020486201209C
:100770008DF81700FFE79DF8170006B070470000DE
:1007800081B0009001B0704786B00490039102924E
:100790000193049890F820008DF803009DF8030061
:1007A000012806D0FFE79DF80300022840F0E8800A
:1007B000FFE7039880B9FFE704980068C0688007E6
:1007C00048B9FFE70499486A40F4001048620120E4
:1007D0008DF81700DDE00FE00498006800698007DD
:1007E00048B9FFE70499486A40F4001048620120C4
:1007F0008DF81700CDE0FFE704980068039900EB3F
:100800000110D0F8B00100F004000299886002984D
:10081000806858B9FFE704980068039900EB01105D
:10082000D0F8B001400D029908600AE00498006811
:10083000039900EB0110D0F8B001C008029948609C
:10084000FFE704980068039900EB0110D0F8B001AD
:1008500000F002000299C86004980068039900EB58
:100860000110D0F8B40100F00F00082804D3FFE70E
:100870000299082008610BE004980068039900EBD6
:100880000110D0F8B40100F00F0002990861FFE7F1
:1008900004980068039900EB0110D0F8B40180B20D
:1008A000000A0299886104980068039900EB01101E
:1008B000D0F8B401000C02994861049800680399CB
:1008C00000EB0110D0F8B801019908700498006895
:1008D000039900EB0110D0F8B801000A01994870A3
:1008E00004980068039900EB0110D0F8B801000CDF
:1008F0000199887004980068039900EB0110D0F802
:10090000B801000E0199C87004980068039900EBC3
:100910000110D0F8BC01019908710498006803998E
:1009200000EB0110D0F8BC01000A0199487104984D
:100930000068039900EB0110D0F8BC01000C01998C
:10094000887104980068039900EB0110D0F8BC018D
:10095000000E0199C871039838B9FFE7049801683F
:10096000C86840F02000C86006E004980168086983
:1009700040F020000861FFE700208DF8170008E034
:100980000499486A40F48020486201208DF81700DD
:10099000FFE79DF8170006B07047000083B0029093
:1009A00000200190029890F820008DF803009DF837
:1009B0000300012805D0FFE79DF80300022822D19B
:1009C000FFE70298006880684001002804D5FFE72F
:1009D000019801300190FFE70298006880680001EB
:1009E000002804D5FFE7019801300190FFE7029845
:1009F00000688068C000002804D5FFE70198013036
:100A00000190FFE7FFE7019803B0704780B58AB017
:100A1000099000200890099800684069079009989B
:100A200000684068069009980068806805900998F9
:100A30000068C068049009980068006903900998EC
:100A40000068806902909DF81C00C007002800F033
:100A50009480FFE79DF81400C00758B3FFE709989A
:100A60000168012088609DF814008007002804D5E3
:100A7000FFE7099800F08AFB1BE09DF8140040078F
:100A8000002805D5FFE7089840F4006008900FE0C3
:100A90009DF814000007002805D5FFE7089840F4EA
:100AA0008050089003E0099800F06CFBFFE7FFE737
:100AB000FFE7FFE79DF81500C00760B3FFE709985F
:100AC00001684FF4807088609DF815008007002849
:100AD00004D5FFE7099800F061FB1BE09DF81500C5
:100AE0004007002805D5FFE7089840F4005008901B
:100AF0000FE09DF815000007002805D5FFE70898CE
:100B000040F48040089003E0099800F043FBFFE7C1
:100B1000FFE7FFE7FFE79DF81600C00760B3FFE7B8
:100B2000099801684FF4803088609DF816008007AE
:100B3000002804D5FFE7099800F038FB1BE09DF87A
:100B400016004007002805D5FFE7089840F400404C
:100B500008900FE09DF816000007002805D5FFE774
:100B6000089840F48030089003E0099800F01AFBE0
:100B7000FFE7FFE7FFE7FFE7FFE79DF81C0000073F
:100B8000002810D5FFE79DF81000C006002809D501
:100B9000FFE7089840F40070089009980168102059
:100BA000C860FFE7FFE79DF81C00400700280FD54D
:100BB000FFE79DF810000007002808D5FFE7099817
:100BC00001680820C860099800F060FAFFE7FFE7B5
:100BD0009DF81C00800700280BD5FFE709980068E6
:100BE000C068800720B1FFE7099800F053FAFFE7DB
:100BF000FFE79DF81C004006002810D5FFE79DF890
:100C00000C00C006002809D5FFE7089840F4806072
:100C100008900998016810200861FFE7FFE79DF838
:100C20001C00800600280FD5FFE79DF80C00000788
:100C3000002808D5FFE7099801680820086109988D
:100C400000F04EFAFFE7FFE79DF81C00C006002801
:100C50000BD5FFE7099800680069800720B1FFE71E
:100C6000099800F041FAFFE7FFE79DF81E008007B2
:100C700000280FD5FFE79DF81800C006002808D50A
:100C8000FFE70998016810204860099800F030FAE1
:100C9000FFE7FFE79DF81E00C00778B1FFE79DF86A
:100CA00018000007002808D5FFE709980168082008
:100CB0004860099800F07EFAFFE7FFE79DF81D0005
:100CC0000006002840F18D80FFE79DF818004007DE
:100CD000002840F18180FFE79DF81D00C00750B15A
:100CE000FFE79DF80800C00728B1FFE7089840F02B
:100CF00001000890FFE79DF81D00800700280BD534
:100D0000FFE79DF808008007002805D5FFE7089851
:100D100040F002000890FFE79DF81D004007002802
:100D20000BD5FFE79DF808004007002805D5FFE731
:100D3000089840F004000890FFE79DF81D000007A8
:100D4000002848D5FFE79DF8080010F0700F42D04A
:100D5000FFE7029800F0700001460191102814D0BE
:100D6000FFE70198202815D0FFE70198302816D01A
:100D7000FFE70198402817D0FFE70198502818D0C6
:100D8000FFE70198602819D01DE0089840F008009E
:100D9000089019E0089840F01000089014E00898B6
:100DA00040F0200008900FE0089840F040000890C4
:100DB0000AE0089840F08000089005E0089840F4A8
:100DC0008070089000E0FFE709980168886920F0CA
:100DD00070008861FFE7FFE7099801680420486018
:100DE000FFE7089848B1FFE7089A0999486A104355
:100DF00048620998FFF7C4FCFFE70AB080BD000015
:100E000080B584B00290029820B9FFE701208DF8E8
:100E10000F00E0E0029890F8200020B9FFE7029868
:100E200000F0DEF8FFE702980168086840F0010072
:100E3000086000F0BFFB0190FFE70298006840687F
:100E4000C007A8B9FFE700F0B5FB0199401A0B28CD
:100E50000DD3FFE70299486A40F4003048620299D6
:100E6000052081F8200001208DF80F00B3E0E4E7B1
:100E700002980168086820F00200086000F09AFB00
:100E80000190FFE70298006840688007002815D5A8
:100E9000FFE700F08FFB0199401A0B280DD3FFE705
:100EA0000299486A40F4003048620299052081F8AE
:100EB000200001208DF80F008DE0E3E70298007E0E
:100EC000012807D1FFE702980168086840F0800018
:100ED000086006E002980168086820F08000086059
:100EE000FFE70298407E012807D1FFE702980168DA
:100EF000086840F04000086006E002980168086851
:100F000020F040000860FFE70298807E012807D1AA
:100F1000FFE702980168086840F02000086006E0DA
:100F200002980168086820F020000860FFE7029836
:100F3000C07E012807D1FFE702980168086820F009
:100F40001000086006E002980168086840F0100090
:100F50000860FFE70298007F012807D1FFE70298A9
:100F60000168086840F00800086006E0029801681F
:100F7000086820F008000860FFE70298407F012819
:100F800007D1FFE702980168086840F00400086094
:100F900006E002980168086820F004000860FFE796
:100FA000029B19685A689868D3F80CC040EA0C0094
:100FB000D3F810C040EA0C005B691843013A1043B3
:100FC000C861029900204862029A012182F820102B
:100FD0008DF80F00FFE79DF80F0004B080BD000002
:100FE00080B58CB00B9000200A9009900890079073
:100FF00006900B98006846F20041C4F20001884256
:1010000042D1FFE7FFE741F21C00C4F20200016891
:1010100041F000710160006800F0007005900598D3
:10102000FFE7FFE741F21400C4F20200016841F457
:1010300000310160006800F4003004900498FFE77C
:101040004FF4C050069002200790002002900890B4
:101050000320099009200A904FF0904006A900F063
:10106000CFF8029A132001900C2100F02FFB019879
:1010700000F022FB029A142003900B2100F026FBC3
:10108000039800F019FBFFE70CB080BD81B0009021
:1010900001B0704780B582B00190019840F27802AB
:1010A000C2F2000240F27003C2F200030021FFF717
:1010B0006BFB98B9FFE740F27000C2F20000C07904
:1010C00040F23111C2F20001087040F20040C4F653
:1010D00000004FF4007100F043FAFFE702B080BD5A
:1010E00081B0009001B0704781B0009001B07047AE
:1010F00081B0009001B0704780B584B00290029832
:1011000090F8200001282FD1FFE70299022081F8F2
:10111000200002980168086820F00100086000F0D3
:1011200049FA0190FFE7029800684068C007A8B13B
:10113000FFE700F03FFA0199401A0B280DD3FFE7B3
:101140000299486A40F4003048620299052081F80B
:10115000200001208DF80F000FE0E4E70299002045
:1011600048628DF80F0008E00299486A40F40020B8
:10117000486201208DF80F00FFE79DF80F0004B0D2
:1011800080BD000081B0009001B0704781B0009038
:1011900001B0704781B0009001B0704781B00090FD
:1011A00001B0704781B0009001B0704781B00090ED
:1011B00001B0704781B0009001B0704780B584B035
:1011C000039000F0F7F90290039801900198013024
:1011D00048B1FFE740F20400C2F200000178019834
:1011E00008440190FFE7FFE700F0E4F90299401A94
:1011F0000199884201D2FFE7F6E704B080BD000004
:1012000089B00890079100200690FFE707980068D2
:101210000699C840002800F08981FFE70798006818
:10122000069A01219140084005900598002800F099
:101230007981FFE70798406800F00300012807D094
:10124000FFE70798406800F0030002282FD1FFE76E
:1012500008988068049006984100032000FA01F184
:101260000498884304900798C0680699490000FADA
:1012700001F104980843049004980899886008983C
:10128000406804900699012000FA01F1049888430F
:10129000049007984068C0F30010069900FA01F125
:1012A000049808430490049808994860FFE7079859
:1012B000406800F00300032818D0FFE70898C068D2
:1012C000049006984100032000FA01F10498884335
:1012D0000490079880680699490000FA01F1049883
:1012E0000843049004980899C860FFE7079840688D
:1012F00000F00300022826D1FFE7089806996FF056
:10130000030202EA51010844006A0490069800F0C2
:10131000070081000F2000FA01F10498884304902F
:1013200007980069069901F00701890000FA01F1A8
:1013300004980843049004980899069B02EA530213
:1013400011440862FFE7089800680490069841007D
:10135000032000FA01F1049888430490079840683C
:1013600000F003000699490000FA01F104980843CF
:1013700004900498089908600798807980070028ED
:1013800000F0CF80FFE7FFE741F21800C4F202004F
:10139000016841F001010160006800F00100039064
:1013A0000398FFE7069820F003000821C4F201012A
:1013B00040580490069800F0030081000F2000FAC6
:1013C00001F10498884304900898B0F1904F03D13C
:1013D000FFE70020029026E0089840F20041C4F6A2
:1013E0000001884203D1FFE70120019018E008982E
:1013F00040F60001C4F60001884203D1FFE7022055
:1014000000900AE0089940F60042C4F60002052068
:10141000914208BF03200090FFE700980190FFE78A
:1014200001980290FFE70298069901F003018900F4
:1014300000FA01F10498084304900498069921F0F9
:1014400003010822C4F20102885040F20840C4F2AD
:101450000100006804900599049888430490079857
:101460008079C006002805D5FFE705990498084350
:101470000490FFE7049840F20841C4F201010860BB
:1014800040F20C40C4F201000068049005990498F1
:1014900088430490079880798006002805D5FFE7E7
:1014A0000599049808430490FFE7049840F20C4122
:1014B000C4F20101086040F20440C4F20100006877
:1014C00004900599049888430490079880798007D0
:1014D000002805D5FFE70599049808430490FFE725
:1014E000049840F20441C4F20101086040F2004057
:1014F000C4F20100006804900599049888430490A0
:1015000007988079C00728B1FFE705990498084338
:101510000490FFE7049840F20041C4F20101086022
:10152000FFE7FFE70698013006906FE609B07047C5
:1015300082B00190ADF8021001980069BDF8021068
:10154000084204D0FFE701208DF8010003E00020ED
:101550008DF80100FFE79DF8010002B07047000020
:1015600083B00290ADF80610029840690090009A8E
:10157000BDF8060002EA0001904340EA01400299EA
:10158000886103B07047000082B00190ADF802108E
:101590008DF801209DF8010028B1FFE7BDF8020099
:1015A0000199886104E0BDF8020001998862FFE7B3
:1015B00002B0704740F23410C2F200000068704779
:1015C00040F20400C2F20000027840F23411C2F28C
:1015D00000010868104408607047000080B542F2BE
:1015E0000001C4F20201086840F010000860032006
:1015F00000F086F80F2000F005F800F03BF800201E
:1016000080BD000080B582B0009040F20000C2F2C0
:101610000000006840F20401C2F200010A784FF4B1
:101620007A71B1FBF2F1B0FBF1F000F091FF20B163
:10163000FFE701208DF8070018E000980F280DD86B
:10164000FFE700994FF0FF30002200F03FF80098CC
:1016500040F20801C2F20001086003E001208DF8A9
:10166000070003E000208DF80700FFE79DF8070062
:1016700002B080BD82B0FFE741F21800C4F2020060
:10168000016841F001010160006800F00100019073
:101690000198FFE7FFE741F21C00C4F20200016875
:1016A00041F080510160006800F080500090009887
:1016B000FFE702B07047000080B582B08DF80700E8
:1016C0009DF9070001F0C2FF02B080BD80B586B071
:1016D0008DF81700049103920020029001F0CEFFD4
:1016E00002909DF91700019002980499039A01F065
:1016F0003BFB0146019801F0C9FF06B080BD000028
:1017000080B582B00190019801F0E2FF02B080BD87
:1017100080B58EB00C900B9100200A900C9820B9E7
:10172000FFE701208DF8370073E10B9842F20001CA
:10173000C4F20201096801F00701884216D9FFE7E7
:1017400042F20000C4F20200016821F007010B9A86
:1017500011430160006800F007000B99884204D033
:10176000FFE701208DF8370053E1FFE70C98007880
:10177000800700280CD5FFE741F20401C4F2020102
:10178000086820F0F0000C9A926810430860FFE7A8
:101790000C980078C007002800F0D680FFE70C986E
:1017A0004068012835D1FFE7002038B9FFE741F252
:1017B0000000C4F202000068099020E0012038B95E
:1017C000FFE741F22000C4F202000068089013E035
:1017D000012038B9FFE741F20400C4F202000068BA
:1017E000079006E041F22400C4F20200006807906E
:1017F000FFE707980890FFE708980990FFE7099826
:101800008003002804D4FFE701208DF8370000E1B1
:101810006FE00C984068022835D1FFE7002038B906
:10182000FFE741F20000C4F202000068069020E0E9
:10183000012038B9FFE741F22000C4F2020000683D
:10184000059013E0012038B9FFE741F20400C4F22B
:1018500002000068049006E041F22400C4F2020095
:1018600000680490FFE704980590FFE7059806904C
:10187000FFE706988001002804D4FFE701208DF8D7
:101880003700C6E034E0002038B9FFE741F200003D
:10189000C4F202000068039020E0012038B9FFE79D
:1018A00041F22000C4F202000068029013E001201F
:1018B00038B9FFE741F20400C4F202000068019069
:1018C00006E041F22400C4F2020000680190FFE744
:1018D00001980290FFE702980390FFE703988007C2
:1018E000002804D4FFE701208DF8370091E0FFE7DE
:1018F000FFE741F20401C4F20201086820F003008E
:101900000C9A526810430860FFF754FE0A90FFE7F4
:1019100041F20400C4F20200006800F00C000C99CF
:101920004968B0EB810F0ED0FFE7FFF743FE0A993D
:10193000401A41F28931884204D3FFE703208DF831
:10194000370066E0E4E7FFE70B9842F20001C4F2DB
:101950000201096801F00701884216D2FFE742F24E
:101960000000C4F20200016821F007010B9A114344
:101970000160006800F007000B99884204D0FFE77F
:1019800001208DF8370044E0FFE70C98007840070D
:1019900000280CD5FFE741F20401C4F202010868F7
:1019A00020F4E0600C9AD26810430860FFE70C98BE
:1019B0000078000700280DD5FFE741F20401C4F2CA
:1019C0000201086820F460500C9A126940EAC200D3
:1019D0000860FFE700F022F841F20401C4F20201BE
:1019E0000968C9B20A0943F6DC01C0F60001895C46
:1019F000C84040F20001C2F20001086040F2080055
:101A0000C2F200000068FFF7FDFD00208DF83700EE
:101A1000FFE79DF837000EB080BD000080B586B0AE
:101A200000200590049003900290019041F2040080
:101A3000C4F2020000680590059800F00C00014611
:101A40000091002841D0FFE70098042804D0FFE768
:101A50000098082806D039E041F20020C0F27A0050
:101A6000019039E00598C0F3834143F6EC00C0F6DD
:101A70000000405C029041F22C00C4F202000068B9
:101A800000F00F0143F6FC00C0F60000405C04903B
:101A90009DF81600C00768B1FFE7049A41F20020E4
:101AA000C0F27A0000231946FEF7DEFB0299484394
:101AB000039007E0029840F60011C0F23D01484350
:101AC0000390FFE70398019006E0FFE741F2002052
:101AD000C0F27A000190FFE7019806B080BD0000D7
:101AE00080B5AEB02C902C9828B9FFE701208DF876
:101AF000B70000F028BD2C980078C007002800F03F
:101B00003181FFE741F20400C4F20200006800F0F6
:101B10000C00042813D0FFE741F20400C4F20200D5
:101B2000006800F00C00082843D1FFE741F20400F0
:101B3000C4F202000068C00300283AD5FFE7002085
:101B400038B9FFE741F20000C4F2020000682790B4
:101B500020E0012038B9FFE741F22000C4F2020082
:101B60000068269013E0012038B9FFE741F2040035
:101B7000C4F202000068259006E041F22400C4F29D
:101B8000020000682590FFE725982690FFE7269839
:101B90002790FFE727988003002809D5FFE72C98B6
:101BA000406828B9FFE701208DF8B70000F0CBBCF2
:101BB000D7E0FFE72C984068B0F5803F09D1FFE7F8
:101BC00041F20001C4F20201086840F4803008606C
:101BD00032E02C98406868B9FFE741F20001C4F296
:101BE0000201086820F480300860086820F4802032
:101BF000086020E02C984068B0F5A02F0DD1FFE7D9
:101C000041F20001C4F20201086840F4802008603B
:101C1000086840F4803008600CE041F20001C4F232
:101C20000201086820F480300860086820F48020F1
:101C30000860FFE7FFE7FFE7FFE741F22C01C4F28E
:101C40000201086820F00F002C9A92681043086087
:101C50002C984068002842D0FFE7FFF7ABFC2B90A0
:101C6000FFE7002038B9FFE741F20000C4F20200AC
:101C70000068249020E0012038B9FFE741F22000FD
:101C8000C4F202000068239013E0012038B9FFE796
:101C900041F20400C4F202000068229006E041F222
:101CA0002400C4F2020000682290FFE722982390EB
:101CB000FFE723982490FFE72498800300280DD4A1
:101CC000FFE7FFF777FC2B99401A652805D3FFE75C
:101CD00003208DF8B70000F036BCC2E740E0FFF704
:101CE00069FC2B90FFE7002038B9FFE741F20000C4
:101CF000C4F202000068219020E0012038B9FFE71B
:101D000041F22000C4F202000068209013E001209C
:101D100038B9FFE741F20400C4F2020000681F90E6
:101D200006E041F22400C4F2020000681F90FFE7C1
:101D30001F982090FFE720982190FFE721988003CB
:101D400000280CD5FFE7FFF735FC2B99401A6528D2
:101D500004D3FFE703208DF8B700F4E3C3E7FFE700
:101D6000FFE7FFE72C9800788007002840F1038107
:101D7000FFE741F20400C4F20200006810F00C0F0B
:101D800013D0FFE741F20400C4F20200006800F043
:101D90000C00082850D1FFE741F20400C4F2020011
:101DA0000068C003002847D4FFE7002038B9FFE7E8
:101DB00041F20000C4F2020000681E9020E0012001
:101DC00038B9FFE741F22000C4F2020000681D901C
:101DD00013E0012038B9FFE741F20400C4F2020029
:101DE00000681C9006E041F22400C4F20200006882
:101DF0001C90FFE71C981D90FFE71D981E90FFE7C1
:101E00001E988007002809D5FFE72C980069012853
:101E100004D0FFE701208DF8B70094E341F2000100
:101E2000C4F20201086820F0F8002C9A526940EAD6
:101E3000C2000860FFE79DE02C980069002852D09E
:101E4000FFE70021C4F2422101200860FFF7B2FB46
:101E50002B90FFE7002038B9FFE741F20000C4F201
:101E6000020000681B9020E0012038B9FFE741F232
:101E70002000C4F2020000681A9013E0012038B973
:101E8000FFE741F20400C4F202000068199006E086
:101E900041F22400C4F2020000681990FFE719988B
:101EA0001A90FFE71A981B90FFE71B9880070028FD
:101EB0000CD4FFE7FFF77EFB2B99401A032804D3CD
:101EC000FFE703208DF8B7003DE3C3E741F20001CF
:101ED000C4F20201086820F0F8002C9A526940EA26
:101EE000C200086045E00021C4F2422100200860E1
:101EF000FFF760FB2B90FFE7002038B9FFE741F2C6
:101F00000000C4F202000068189020E0012038B9F7
:101F1000FFE741F22000C4F202000068179013E0CE
:101F2000012038B9FFE741F20400C4F20200006862
:101F3000169006E041F22400C4F2020000681690F8
:101F4000FFE716981790FFE717981890FFE7189883
:101F5000800700280CD5FFE7FFF72CFB2B99401AD0
:101F6000032804D3FFE703208DF8B700EBE2C3E7B3
:101F7000FFE7FFE7FFE72C9800780007002840F113
:101F80009580FFE72C988069002847D0FFE740F252
:101F90008041C4F2422101200860FFF70BFB2B9027
:101FA000FFE7012038B9FFE741F20000C4F2020068
:101FB0000068159020E0012038B9FFE741F22000C9
:101FC000C4F202000068149013E0012038B9FFE762
:101FD00041F20400C4F202000068139006E041F2EE
:101FE0002400C4F2020000681390FFE713981490D5
:101FF000FFE714981590FFE71598800700280CD488
:10200000FFE7FFF7D7FA2B99401A032804D3FFE71D
:1020100003208DF8B70096E2C3E746E040F2804126
:10202000C4F2422100200860FFF7C4FA2B90FFE7BA
:10203000012038B9FFE741F20000C4F20200006855
:10204000129020E0012038B9FFE741F22000C4F2ED
:1020500002000068119013E0012038B9FFE741F257
:102060000400C4F202000068109006E041F224006F
:10207000C4F2020000681090FFE710981190FFE78B
:1020800011981290FFE71298800700280CD5FFE7FF
:10209000FFF790FA2B99401A032804D3FFE7032097
:1020A0008DF8B7004FE2C3E7FFE7FFE72C98007811
:1020B0004007002840F12781FFE700208DF8A700A6
:1020C00041F21C00C4F202000068C000002813D4D2
:1020D000FFE7FFE741F21C00C4F20200016841F093
:1020E00080510160006800F0805028902898FFE738
:1020F00001208DF8A700FFE747F20000C4F20000BE
:102100000068C005002822D4FFE747F20001C4F2AE
:102110000001086840F480700860FFF74BFA2B90CC
:10212000FFE747F20000C4F200000068C005002885
:102130000CD4FFE7FFF73EFA2B99401A652804D329
:10214000FFE703208DF8B700FDE1EAE7FFE7FFE7CF
:102150002C98C068012809D1FFE741F22001C4F2A0
:102160000201086840F00100086031E02C98C06866
:1021700068B9FFE741F22001C4F20201086820F0CB
:1021800001000860086820F0040008601FE02C9837
:10219000C06805280DD1FFE741F22001C4F2020119
:1021A000086840F004000860086840F0010008601A
:1021B0000CE041F22001C4F20201086820F00100A5
:1021C0000860086820F004000860FFE7FFE7FFE709
:1021D000FFE72C98C068002843D0FFE7FFF7EAF933
:1021E0002B90FFE7012038B9FFE741F20000C4F26D
:1021F000020000680F9020E0002038B9FFE741F2AC
:102200002000C4F2020000680E9013E0012038B9EB
:10221000FFE741F20400C4F2020000680D9006E0FE
:1022200041F22400C4F2020000680D90FFE70D980F
:102230000E90FFE70E980F90FFE70F988007002899
:102240000ED4FFE7FFF7B6F92B99401A41F2893116
:10225000884204D3FFE703208DF8B70073E1C1E79C
:1022600042E0FFF7A7F92B90FFE7012038B9FFE71D
:1022700041F20000C4F2020000680C9020E000204F
:1022800038B9FFE741F22000C4F2020000680B9069
:1022900013E0012038B9FFE741F20400C4F2020064
:1022A00000680A9006E041F22400C4F202000068CF
:1022B0000A90FFE70A980B90FFE70B980C90FFE756
:1022C0000C98800700280ED5FFE7FFF773F92B99CC
:1022D000401A41F28931884204D3FFE703208DF888
:1022E000B70030E1C1E7FFE79DF8A700012809D159
:1022F000FFE741F21C01C4F20201086820F080509F
:102300000860FFE7FFE72C98C069002800F01781FC
:10231000FFE741F20400C4F20200006800F00C0084
:10232000082800F0E680FFE72C98C069022840F0FA
:102330009980FFE76021C4F2422100200860FFF786
:1023400039F92B90FFE7002038B9FFE741F2000090
:10235000C4F202000068099020E0012038B9FFE7CC
:1023600041F22000C4F202000068089013E001204E
:1023700038B9FFE741F20400C4F202000068079098
:1023800006E041F22400C4F2020000680790FFE773
:1023900007980890FFE708980990FFE709988001DF
:1023A00000280CD5FFE7FFF705F92B99401A032801
:1023B00004D3FFE703208DF8B700C4E0C3E741F280
:1023C0000401C4F20201086820F474102C9A136A04
:1023D000526A1A43104308606021C4F2422101206E
:1023E0000860FFF7E7F82B90FFE7002038B9FFE718
:1023F00041F20000C4F202000068069020E00120D3
:1024000038B9FFE741F22000C4F2020000680590ED
:1024100013E0012038B9FFE741F20400C4F20200E2
:102420000068049006E041F22400C4F20200006853
:102430000490FFE704980590FFE705980690FFE7F2
:102440000698800100280CD4FFE7FFF7B3F82B991A
:10245000401A032804D3FFE703208DF8B70072E089
:10246000C3E745E06021C4F2422100200860FFF785
:10247000A1F82B90FFE7002038B9FFE741F20000F8
:10248000C4F202000068039020E0012038B9FFE7A1
:1024900041F22000C4F202000068029013E0012023
:1024A00038B9FFE741F20400C4F20200006801906D
:1024B00006E041F22400C4F2020000680190FFE748
:1024C00001980290FFE702980390FFE703988001CC
:1024D00000280CD5FFE7FFF76DF82B99401A032869
:1024E00004D3FFE703208DF8B7002CE0C3E7FFE734
:1024F00024E02C98C069012804D1FFE701208DF861
:10250000B70020E041F20400C4F2020000682A9003
:102510002A9800F480302C99096A884208D1FFE794
:102520002A9800F470102C99496A884204D0FFE779
:1025300001208DF8B70006E0FFE7FFE7FFE7002086
:102540008DF8B700FFE79DF8B7002EB080BD000002
:1025500080B582B00190019800F040FC02B080BDCF
:1025600085B003900291FFE7039890F83C000128A2
:1025700004D1FFE702208DF813006EE003990120DB
:1025800081F83C00FFE7FFE70399022081F83D0056
:102590000398006840680190039800688068009084
:1025A0000398006842F60041C4F2010188420AD152
:1025B000FFE7019820F470000190029841680198AB
:1025C00008430190FFE7019820F070000190029805
:1025D00001680198084301900198039909684860CF
:1025E0000398006842F60041C4F20101884218D005
:1025F000FFE703980068B0F1804F12D0FFE703981F
:10260000006840F20041C4F20001884209D0FFE7AF
:102610000398006844F20001C4F2010188420ED11F
:10262000FFE7009820F080000090029881680098F1
:10263000084300900098039909688860FFE70399B0
:10264000012081F83D00FFE70399002081F83C005C
:10265000FFE700208DF81300FFE79DF8130005B099
:102660007047000080B588B0079000200690059064
:102670000490039002900798006840F20041C4F271
:102680000001884220D1FFE7FFE741F21400C4F2C5
:102690000200016841F480210160006800F480209C
:1026A00001900198FFE78020029002200390002013
:1026B000049005900A20069040F20040C4F6000005
:1026C00002A9FEF79DFDFFE708B080BD80B586B08A
:1026D00004900391029200208DF80700FFE7049810
:1026E00090F83C00012804D1FFE702208DF8170084
:1026F000C0E00499012081F83C00FFE7FFE7029861
:102700000090142800F2A7800099DFE801F00BA4E4
:10271000A4A424A4A4A43EA4A4A457A4A4A471A4DF
:10272000A4A48A0004980068039900F079FC049836
:102730000168886940F00800886104980168886928
:1027400020F0040088610398026904980168886990
:102750001043886183E004980068039900F0FAFC54
:1027600004980168886940F40060886104980168F1
:10277000886920F480608861039802690498016880
:10278000886940EA0220886169E00498006803993A
:1027900000F088FD04980168C86940F00800C8612D
:1027A00004980168C86920F00400C86103980269B0
:1027B00004980168C8691043C86150E00498006833
:1027C000039900F017FE04980168C86940F400609E
:1027D000C86104980168C86920F48060C8610398E2
:1027E000026904980168C86940EA0220C86136E0BD
:1027F00004980068039900F063FE04980168486D2E
:1028000040F00800486504980168486D20F0040015
:1028100048650398026904980168486D104348654B
:102820001DE004980068039900F0ACFE049801686C
:10283000486D40F40060486504980168486D20F4D4
:10284000806048650398026904980168486D40EA11
:102850000220486503E001208DF80700FFE7FFE74D
:102860000499002081F83C00FFE79DF807008DF8EF
:102870001700FFE79DF8170006B080BD80B582B055
:102880000090009820B9FFE701208DF8070045E08F
:10289000009890F83D0040B9FFE70099002081F8CA
:1028A0003C00009800F03EF8FFE70099022081F814
:1028B0003D00009951F8040B00F0FEFA0099012048
:1028C00081F84800FFE70099012081F83E00009957
:1028D00081F83F00009981F84000009981F841009B
:1028E000009981F84200009981F84300FFE7FFE773
:1028F0000099012081F84400009981F84500009971
:1029000081F84600009981F84700FFE7009901200F
:1029100081F83D0000208DF80700FFE79DF80700D3
:1029200002B080BD82B001900198006840F2004181
:10293000C4F20001884210D1FFE7FFE741F21C001A
:10294000C4F20200016841F002010160006800F079
:10295000020000900098FFE7FFE702B07047000018
:1029600080B590B00E900D910D9828B9FFE70E98A4
:1029700090F83E000B9034E00D98042805D1FFE755
:102980000E9890F83F000A9028E00D98082805D18D
:10299000FFE70E9890F8400009901CE00D980C2875
:1029A00005D1FFE70E9890F84100089010E00D98CF
:1029B000102805D1FFE70E9890F84200079004E038
:1029C0000E9890F843000790FFE707980890FFE7FC
:1029D00008980990FFE709980A90FFE70A980B907A
:1029E000FFE70B98012804D0FFE701208DF83F0096
:1029F000C4E00D9828B9FFE70E99022081F83E0047
:102A000038E00D98042806D1FFE70E99022081F8DE
:102A10003F0006902CE00D98082806D1FFE70E999C
:102A2000022081F8400005901FE00D980C2806D187
:102A3000FFE70E99022081F84100049012E00D9802
:102A4000102806D1FFE70E99022081F8420003907A
:102A500005E00E99022081F843000390FFE70398F8
:102A60000490FFE704980590FFE705980690FFE7BC
:102A70000698FFE70E9800680D990122019200F078
:102A8000B3FA01980E99096842F60042C4F20102B5
:102A90009142029022D0FFE70E980168012044F293
:102AA0000002C4F201029142029017D0FFE70E9893
:102AB0000168012044F20042C4F2010291420290F6
:102AC0000CD0FFE70E9800684BF60001CBF6FE71C4
:102AD0000844B0FA80F040090290FFE70298C0076E
:102AE00038B1FFE70E980168486C40F40040486434
:102AF000FFE70E98006842F60041C4F201018842E7
:102B000018D0FFE70E980068B0F1804F12D0FFE7B1
:102B10000E98006840F20041C4F20001884209D0DA
:102B2000FFE70E98006844F20001C4F201018842F8
:102B300019D1FFE70E98006880680721C0F20101F3
:102B400008400C900C9806280CD0FFE70C98B0F5C4
:102B5000803F07D0FFE70E980168086840F0010049
:102B60000860FFE706E00E980168086840F0010081
:102B70000860FFE700208DF83F00FFE79DF83F0069
:102B800010B080BDFFE7FEE780B58CB040F2BC001E
:102B9000C2F20000019046F20041C4F2000101605F
:102BA0000421416000228260C2604FF44021016133
:102BB0004FF4801141610276012141768276C1761F
:102BC00002774177FEF71CF918B1FFE7FDF73CFCEF
:102BD000FFE70021079108910120099002910391DC
:102BE0000491059106910A9040F2BC00C2F20000E7
:102BF00002A9FDF707FD18B1FFE7FDF725FCFFE788
:102C00000CB080BD80B58EB000200D900C900B9064
:102C10000A900990FFE741F21400C4F20200016833
:102C200041F480010160006800F480000890089879
:102C3000FFE7FFE741F21400C4F20200016841F42B
:102C400000310160006800F4003007900798FFE74A
:102C5000FFE741F21400C4F20200016841F4802150
:102C60000160006800F4802006900698FFE740F2BB
:102C70000040C4F6000004904FF45071019100220E
:102C80000392FEF781FC03980121029109910A90B9
:102C90000B904FF0904009A90591FEF7B1FADDF8CD
:102CA00004C0029B039A04980599CDF824C00A93A6
:102CB0000B920C92FEF7A4FA0EB080BD80B58CB0DA
:102CC000002101910B910A910991089107910691B8
:102CD000059104910391029140F2E400C2F20000D8
:102CE00040F20042C4F20002026041F61F4242601C
:102CF000816042F21072C260016180218161FFF740
:102D0000BDFD18B1FFE7FDF79FFBFFE7002009902D
:102D10000B9040F2E400C2F2000009A9FFF720FC8A
:102D200018B1FFE7FDF790FBFFE76020029000205D
:102D300003900490069040F2E400C2F2000002A961
:102D40000C22FFF7C3FC18B1FFE7FDF77DFBFFE79F
:102D500040F2E400C2F20000FFF784FC0CB080BD3A
:102D6000FFE7FEE7FFE7FEE788B0079006910592D0
:102D7000079800F0070004900498C0F107000528A8
:102D800003D3FFE70420019004E00498C0F107009A
:102D90000190FFE70198039004980430062803D8B7
:102DA000FFE70020009003E0049803380090FFE75D
:102DB0000098029006980399012202FA01F1013964
:102DC0000840029B984005999A40013A11400843F7
:102DD00008B07047704700007047000080B582B0AF
:102DE000009000980138B0F1807F03D3FFE7012005
:102DF000019019E0009801384EF21401CEF2000162
:102E000008604FF0FF300F2100F040FC4EF2180137
:102E1000CEF20001002008604EF21002CEF2000255
:102E2000072111600190FFE7019802B080BD00000A
:102E300080B5FEF7C5FB80BD80B590B006A80090B8
:102E40002821FDF789FA0098002305930493039342
:102E500002930193012206924FF480310791089367
:102E60000A9202220D920E914FF4E0110F91FEF79B
:102E700037FE18B1FFE7FDF7E7FAFFE70F200190F3
:102E800002210291002003904FF480620492059089
:102E900001A8FEF73DFC18B1FFE7FDF7D5FAFFE703
:102EA00010B080BD4EF68851CEF20001086840F4A3
:102EB000700008607047000083B002900191029892
:102EC00000680090029842F60041C4F20101884275
:102ED0000DD0FFE70298B0F1804F08D0FFE70298CD
:102EE00040F20041C4F2000188420AD1FFE7009895
:102EF00020F070000090019841680098084300900D
:102F0000FFE7029842F60041C4F20101884225D051
:102F1000FFE70298B0F1804F20D0FFE7029840F21F
:102F20000041C4F20001884218D0FFE7029844F241
:102F30000001C4F20101884210D0FFE7029844F278
:102F40000041C4F20101884208D0FFE7029844F62C
:102F50000001C4F2010188420AD1FFE7009820F481
:102F6000407000900198C168009808430090FFE706
:102F7000009820F08000019949690843009000986A
:102F800002990860019880680299C86201980068F7
:102F900002998862029842F60041C4F20101884217
:102FA00018D0FFE7029844F20001C4F20101884200
:102FB00010D0FFE7029844F20041C4F201018842B8
:102FC00008D0FFE7029844F60001C4F201018842EC
:102FD00005D1FFE70198006902990863FFE70299AC
:102FE0000120486103B0704784B0039002910192C0
:102FF000029800F01F01012088400090009A039978
:10300000086A904308620198029901F01F0100FAD2
:1030100001F20399086A1043086204B07047000087
:1030200085B0049003910499086A20F001000862B9
:103030000498006A019004984068009004988069A0
:10304000029002984FF68F71CFF6FE710840029001
:10305000029820F003000290039801680298084348
:103060000290019820F00200019003988168019875
:1030700008430190049842F60041C4F201018842DD
:1030800018D0FFE7049844F20001C4F2010188421D
:1030900010D0FFE7049844F20041C4F201018842D5
:1030A00008D0FFE7049844F60001C4F20101884209
:1030B0000ED1FFE7019820F0080001900398C16845
:1030C000019808430190019820F004000190FFE767
:1030D000049842F60041C4F20101884218D0FFE78B
:1030E000049844F20001C4F20101884210D0FFE7C5
:1030F000049844F20041C4F20101884208D0FFE77D
:10310000049844F60001C4F20101884213D1FFE79C
:10311000009820F480700090009820F400700090D7
:1031200003984169009808430090039881690098CA
:1031300008430090FFE700980499486002980499BA
:10314000886103984068049948630198049908626B
:1031500005B0704785B0049003910499086A20F087
:10316000100008620498006A01900498406800907A
:10317000049880690290029848F6FF71CFF6FF61CB
:1031800008400290029820F4407002900398016871
:10319000029840EA01200290019820F0200001905E
:1031A00003988168019840EA01100190049842F662
:1031B0000041C4F20101884221D0FFE7049844F2A3
:1031C0000001C4F20101884203D1FFE70020B0B939
:1031D000FFE7049844F20041C4F20101884203D1A0
:1031E000FFE7002058B9FFE7049844F60001C4F255
:1031F0000101884212D1FFE7012078B9FFE7019869
:1032000020F0800001900398C168019840EA011005
:103210000190019820F040000190FFE7049842F6E9
:103220000041C4F20101884218D0FFE7049844F23B
:103230000001C4F20101884210D0FFE7049844F273
:103240000041C4F20101884208D0FFE7049844F627
:103250000001C4F20101884215D1FFE7009820F473
:1032600080600090009820F400600090039841690D
:10327000009840EA8100009003988169009840EA34
:1032800081000090FFE70098049948600298049933
:1032900088610398406804998863019804990862DA
:1032A00005B0704785B0049003910499086A20F432
:1032B000807008620498006A019004984068009049
:1032C0000498C069029002984FF68F71CFF6FE7194
:1032D00008400290029820F00300029003980168D1
:1032E000029808430290019820F40070019003981E
:1032F0008168019840EA01200190049842F600415B
:10330000C4F20101884221D0FFE7049844F2000191
:10331000C4F20101884203D1FFE70020B0B9FFE702
:10332000049844F20041C4F20101884203D1FFE74E
:10333000002058B9FFE7049844F60001C4F20101E7
:10334000884212D1FFE7012078B9FFE7019820F405
:10335000006001900398C168019840EA0120019043
:10336000019820F480600190FFE7049842F6004144
:10337000C4F20101884218D0FFE7049844F200012A
:10338000C4F20101884210D0FFE7049844F20041E2
:10339000C4F20101884208D0FFE7049844F6000116
:1033A000C4F20101884215D1FFE7009820F4805053
:1033B0000090009820F40050009003984169009814
:1033C00040EA0110009003988169009840EA0110DA
:1033D0000090FFE700980499486002980499C8613A
:1033E000039840680499C86301980499086205B07D
:1033F0007047000085B0049003910499086A20F496
:10340000805008620498006A019004984068009017
:103410000498C0690290029848F6FF71CFF6FF61E8
:1034200008400290029820F44070029003980168CE
:10343000029840EA01200290019820F40050019087
:1034400003988168019840EA01300190049842F69F
:103450000041C4F20101884218D0FFE7049844F209
:103460000001C4F20101884210D0FFE7049844F241
:103470000041C4F20101884208D0FFE7049844F6F5
:103480000001C4F2010188420BD1FFE7009820F44B
:103490008040009003984169009840EA81100090B4
:1034A000FFE700980499486002980499C86103985E
:1034B00040680499086401980499086205B070474F
:1034C00085B0049003910499086A20F48030086262
:1034D0000498006A01900498406800900498406D38
:1034E000029002984FF68F71CFF6FE71084002905D
:1034F00003980168029808430290019820F4003074
:10350000019003988168019840EA01400190049875
:1035100042F60041C4F20101884218D0FFE7049846
:1035200044F20001C4F20101884210D0FFE7049880
:1035300044F20041C4F20101884208D0FFE7049838
:1035400044F60001C4F2010188420BD1FFE7009864
:1035500020F48030009003984169009840EA0120EF
:103560000090FFE700980499486002980499486524
:10357000039840680499886501980499086205B029
:103580007047000085B0049003910499086A20F404
:10359000801008620498006A0190049840680090C6
:1035A0000498406D0290029848F6FF71CFF6FF61D3
:1035B0000840029003980168029840EA01200290B6
:1035C000019820F40010019003988168019840EA66
:1035D00001500190049842F60041C4F20101884272
:1035E00018D0FFE7049844F20001C4F201018842B8
:1035F00010D0FFE7049844F20041C4F20101884270
:1036000008D0FFE7049844F60001C4F201018842A3
:103610000BD1FFE7009820F48020009003984169C7
:10362000009840EA81200090FFE7009804994860E4
:10363000029804994865039840680499C865019800
:103640000499086205B07047FFE7FEE781B08DF886
:1036500003009DF9030000280ED4FFE79DF9031035
:1036600001F01F02012090404A094EF20011CEF2F3
:10367000000141F82200FFE701B070474EF60C5000
:10368000CEF200000068C0F30220704782B08DF8CF
:10369000070000919DF9070000280AD4FFE7009871
:1036A00000019DF907104EF20042CEF2000288544C
:1036B0000BE0009800019DF8071001F00F014EF695
:1036C0001452CEF200028854FFE702B070470000A7
:1036D00083B00290029800F0070000904EF60C5163
:1036E000CEF200010868019001984FF6FF021040E9
:1036F00001900198009A40EA02200022C0F2FA529A
:10370000104301900198086003B0704780B584B001
:103710008DF80F009DF80F0001460291012804D09A
:10372000FFE70298022810D01FE040F20040C4F6E4
:103730000000019040210122FDF726FF01984FF47F
:1037400080710022FDF720FF19E040F20040C4F62E
:10375000000000904FF480710122FDF715FF0098E2
:1037600040210022FDF710FF09E040F20040C4F6BE
:1037700000004FF4A0710022FDF706FFFFE704B040
:1037800080BD000080B584B0002001900390FDF75B
:1037900025FFFFF751FBFFF735FAFFF7F5F9FFF7C4
:1037A0008DFA40F2E400C2F200000C21FFF7D8F8D5
:1037B000019840F29402C2F200020A21D17140F253
:1037C0009C01C2F200014FF45E720A604860C8605A
:1037D000886008220A61087540F2BC00C2F200004D
:1037E0000290FDF789FC029848F60241FCF734FE8E
:1037F000FFE740F23110C2F200000078FFF786FFC9
:103800004FF090400121FDF793FE014640F2B800D1
:10381000C2F2000001700078D8B1FFE7FFE740F284
:10382000B800C2F20000007858B1FFE74FF09040B6
:103830000121FDF77DFE40F2B801C2F200010870DF
:10384000EDE740F23011C2F2000108780130087053
:10385000FFE740F23010C2F200000078042807DBD6
:10386000FFE740F23011C2F2000100200870FFE7CC
:1038700040F23010C2F20000007840F29401C2F22F
:103880000001C87140F2BC00C2F20000FDF786F8EA
:1038900098B1FFE740F2BC00C2F2000040F29C0188
:1038A000C2F2000140F29402C2F2000240F2B403FC
:1038B000C2F20003FCF7FAFDFFE7C820FDF77EFC2B
:1038C00097E7F1EE100A4FF6FF71C0F2C03120EA1F
:1038D000010040F04070E1EE100A70470000000067
:1038E00000000000010203040607080902030405A2
:1038F000060708090A0B0C0D0E0F10100102030435
:1039000005060708090A0B0C0D0E0F1030390008C8
:103910000000002010000000C40100084039000829
:103920001000002028070000E0010008000000004F
:1039300000127A00010000001000000000000000EA
:040000050800018965
:00000001FF
