:020000040800F2
:10000000F0060020CD01000839210008DD1F00089E
:1000100035210008D5020008C922000800000000B0
:10002000000000000000000000000000E9210008BE
:10003000E902000800000000A92100084122000890
:10004000E7010008E7010008E7010008E7010008F0
:10005000E7010008E7010008E7010008E7010008E0
:10006000E7010008E7010008E7010008E7010008D0
:10007000E7010008E7010008E7010008E7010008C0
:10008000E7010008E7010008E7010008E7010008B0
:10009000B9220008E7010008D9020008E7010008BA
:1000A000E7010008E7010008E7010008E701000890
:1000B000E7010008E7010008E7010008E701000880
:1000C000E7010008E7010008E7010008E701000870
:1000D000E7010008E7010008E7010008E701000860
:1000E000E7010008E7010008E7010008E701000850
:1000F000E7010008E7010008E7010008E701000840
:10010000E7010008E7010008E7010008E70100082F
:10011000E7010008E7010008E7010008E70100081F
:10012000E7010008E7010008E7010008E70100080F
:1001300000F002F800F03AF80AA090E8000C8244BF
:100140008344AAF10107DA4501D100F02FF8AFF29C
:10015000090EBAE80F0013F0010F18BFFB1A43F0A5
:10016000010318471824000038240000103A24BF67
:1001700078C878C1FAD8520724BF30C830C144BF0C
:1001800004680C607047000000230024002500264E
:10019000103A28BF78C1FBD8520728BF30C148BFEA
:1001A0000B6070471FB51FBD10B510BD00F058F8AB
:1001B0001146FFF7F7FF02F03BF900F076F803B4C1
:1001C000FFF7F2FF03BC00F07DF80000094880470C
:1001D00009480047FEE7FEE7FEE7FEE7FEE7FEE729
:1001E000FEE7FEE7FEE7FEE704480549054A064B41
:1001F00070470000B522000831010008F00000201F
:10020000F0060020F0020020F00200204FF0000273
:1002100000B5134694469646203922BFA0E80C50FC
:10022000A0E80C50B1F12001BFF4F7AF090728BFD7
:10023000A0E80C5048BF0CC05DF804EB890028BF53
:1002400040F8042B08BF704748BF20F8022B11F07C
:10025000804F18BF00F8012B7047704770477047F8
:10026000754600F02BF8AE4605006946534620F06F
:100270000700854618B020B5FFF7B6FFBDE820405F
:100280004FF000064FF000074FF000084FF0000B52
:10029000AC46ACE8C009ACE8C009ACE8C009ACE8C1
:1002A000C00921F007018D46704710B50446AFF331
:1002B00000802046BDE81040FFF781BF004870472E
:1002C0001000002001491820ABBEFEE72600020006
:1002D00070470000FFE7FEE780B540F2BC00C2F2C5
:1002E000000000F0E5FA80BD7047000081B0EFF338
:1002F000108072B60090FFE7FEE7000084B0029025
:100300000191029890F820008DF803009DF80300F9
:10031000012805D0FFE79DF8030002280AD1FFE776
:10032000019A0298016848691043486100208DF8DD
:100330000F0008E00299486A40F4802048620120DA
:100340008DF80F00FFE79DF80F0004B07047000024
:1003500088B00690059104920393069890F82000C7
:100360008DF80700069800688068009005988068FE
:1003700008B9FFE700E0FFE79DF80700012806D075
:10038000FFE79DF80700022840F08080FFE79DF816
:100390000300400700280CD4FFE79DF80300000786
:1003A000002806D4FFE79DF80300C006002864D5A6
:1003B000FFE70098C0F30160029002990120884095
:1003C000039908600598806868B9FFE70598016897
:1003D000C06840EA415006990968029A01EB02118F
:1003E000C1F880010EE005994A688868C96840EA4A
:1003F000C200084306990968029A01EB0211C1F88C
:100400008001FFE70598006906990968029A01EBE7
:100410000211C1F884010598007D01280CD1FFE785
:1004200006980068029900EB0111D1F8840140F4AC
:100430008070C1F88401FFE7049840680699096854
:10044000029A01EB0211C1F88C0104980068069928
:100450000968029A01EB0211C1F888010698006848
:10046000029900EB0111D1F8800140F00100C1F8C0
:10047000800100208DF81F0011E00699486A40F4C1
:100480000010486201208DF81F0008E00699486AB4
:1004900040F48020486201208DF81F00FFE79DF89E
:1004A0001F0008B07047000086B0049003910498C4
:1004B00000680190049890F820008DF803009DF8E2
:1004C0000300012806D0FFE79DF80300022840F052
:1004D0009B80FFE70199D1F8000240F00100C1F8CC
:1004E00000020398406900F01F010120884002903B
:1004F000029A0199D1F81C029043C1F81C0203989A
:10050000C069F0B9FFE7029A0199D1F80C02904353
:10051000C1F80C02039A9088D168526940EA014000
:10052000019901EBC201C1F84002039A1088916859
:10053000526940EA0140019901EBC201C1F844024D
:10054000FFE70398C06901281ED1FFE7029A0199CD
:10055000D1F80C021043C1F80C02039A908811687C
:10056000526940EA0140019901EBC201C1F8400221
:10057000039A90899168526940EA0140019901EB20
:10058000C201C1F84402FFE70398806940B9FFE760
:10059000029A0199D1F804029043C1F8040207E0DD
:1005A000029A0199D1F804021043C1F80402FFE74E
:1005B0000398006940B9FFE7029A0199D1F8140243
:1005C0009043C1F8140207E0029A0199D1F814028D
:1005D0001043C1F81402FFE70398006A012808D10C
:1005E000FFE7029A0199D1F81C021043C1F81C02DE
:1005F000FFE70199D1F8000220F00100C1F80002E4
:1006000000208DF8170008E00499486A40F4802023
:10061000486201208DF81700FFE79DF8170006B02B
:100620007047000081B0009001B0704786B0049020
:10063000039102920193049890F820008DF8030032
:100640009DF80300012806D0FFE79DF8030002286B
:1006500040F0E880FFE7039880B9FFE7049800685E
:10066000C068800748B9FFE70499486A40F4001061
:10067000486201208DF81700DDE00FE00498006863
:100680000069800748B9FFE70499486A40F4001000
:10069000486201208DF81700CDE0FFE7049800685C
:1006A000039900EB0110D0F8B00100F004000299AA
:1006B00088600298806858B9FFE704980068039939
:1006C00000EB0110D0F8B001400D029908600AE07B
:1006D00004980068039900EB0110D0F8B001C0083D
:1006E00002994860FFE704980068039900EB011045
:1006F000D0F8B00100F002000299C86004980068C8
:10070000039900EB0110D0F8B40100F00F000828A5
:1007100004D3FFE70299082008610BE00498006801
:10072000039900EB0110D0F8B40100F00F0002991A
:100730000861FFE704980068039900EB0110D0F806
:10074000B40180B2000A0299886104980068039994
:1007500000EB0110D0F8B401000C02994861049834
:100760000068039900EB0110D0F8B80101990870F6
:1007700004980068039900EB0110D0F8B801000A52
:100780000199487004980068039900EB0110D0F8B3
:10079000B801000C0199887004980068039900EB77
:1007A0000110D0F8B801000E0199C87004980068D3
:1007B000039900EB0110D0F8BC010199087104986D
:1007C0000068039900EB0110D0F8BC01000A019900
:1007D000487104980068039900EB0110D0F8BC013F
:1007E000000C0199887104980068039900EB0110CE
:1007F000D0F8BC01000E0199C871039838B9FFE721
:1008000004980168C86840F02000C86006E00498B9
:100810000168086940F020000861FFE700208DF8BA
:10082000170008E00499486A40F4802048620120DB
:100830008DF81700FFE79DF8170006B0704700001D
:1008400083B0029000200190029890F820008DF86B
:1008500003009DF80300012805D0FFE79DF8030081
:10086000022822D1FFE70298006880684001002832
:1008700004D5FFE7019801300190FFE70298006876
:1008800080680001002804D5FFE70198013001903D
:10089000FFE7029800688068C000002804D5FFE7E1
:1008A000019801300190FFE7FFE7019803B070471E
:1008B00080B58AB0099000200890099800684069C6
:1008C0000790099800684068069009980068806859
:1008D000059009980068C06804900998006800694C
:1008E000039009980068806902909DF81C00C00779
:1008F000002800F09480FFE79DF81400C00758B36B
:10090000FFE709980168012088609DF814008007BE
:10091000002804D5FFE7099800F0A8FB1BE09DF82C
:1009200014004007002805D5FFE7089840F4006050
:1009300008900FE09DF814000007002805D5FFE798
:10094000089840F48050089003E0099800F08AFB72
:10095000FFE7FFE7FFE7FFE79DF81500C00760B37B
:10096000FFE7099801684FF4807088609DF81500D2
:100970008007002804D5FFE7099800F07FFB1BE003
:100980009DF815004007002805D5FFE7089840F4BA
:10099000005008900FE09DF815000007002805D5CD
:1009A000FFE7089840F48040089003E0099800F0C1
:1009B00061FBFFE7FFE7FFE7FFE79DF81600C007D1
:1009C00060B3FFE7099801684FF4803088609DF8B4
:1009D00016008007002804D5FFE7099800F056FBB1
:1009E0001BE09DF816004007002805D5FFE7089892
:1009F00040F4004008900FE09DF816000007002822
:100A000005D5FFE7089840F48030089003E0099886
:100A100000F038FBFFE7FFE7FFE7FFE7FFE79DF8A0
:100A20001C000007002810D5FFE79DF81000C00645
:100A3000002809D5FFE7089840F40070089009984D
:100A400001681020C860FFE7FFE79DF81C00400721
:100A500000280FD5FFE79DF810000007002808D5F3
:100A6000FFE7099801680820C860099800F07EFA3D
:100A7000FFE7FFE79DF81C00800700280BD5FFE784
:100A800009980068C068800720B1FFE7099800F066
:100A900071FAFFE7FFE79DF81C004006002810D51B
:100AA000FFE79DF80C00C006002809D5FFE708986D
:100AB00040F4806008900998016810200861FFE701
:100AC000FFE79DF81C00800600280FD5FFE79DF882
:100AD0000C000007002808D5FFE7099801680820E6
:100AE0000861099800F06CFAFFE7FFE79DF81C0029
:100AF000C00600280BD5FFE7099800680069800749
:100B000020B1FFE7099800F05FFAFFE7FFE79DF8E3
:100B10001E00800700280FD5FFE79DF81800C006CB
:100B2000002808D5FFE70998016810204860099857
:100B300000F04EFAFFE7FFE79DF81E00C00778B10E
:100B4000FFE79DF818000007002808D5FFE709987F
:100B5000016808204860099800F09CFAFFE7FFE769
:100B60009DF81D000006002840F18D80FFE79DF8EC
:100B700018004007002840F18180FFE79DF81D0024
:100B8000C00750B1FFE79DF80800C00728B1FFE794
:100B9000089840F001000890FFE79DF81D008007CD
:100BA00000280BD5FFE79DF808008007002805D531
:100BB000FFE7089840F002000890FFE79DF81D004D
:100BC000400700280BD5FFE79DF8080040070028E4
:100BD00005D5FFE7089840F004000890FFE79DF86E
:100BE0001D000007002848D5FFE79DF8080010F019
:100BF000700F42D0FFE7029800F0700001460191AB
:100C0000102814D0FFE70198202815D0FFE701989D
:100C1000302816D0FFE70198402817D0FFE7019849
:100C2000502818D0FFE70198602819D01DE00898D7
:100C300040F00800089019E0089840F01000089073
:100C400014E0089840F0200008900FE0089840F069
:100C5000400008900AE0089840F08000089005E005
:100C6000089840F48070089000E0FFE70998016858
:100C7000886920F070008861FFE7FFE70998016844
:100C800004204860FFE7089848B1FFE7089A0999EF
:100C9000486A104348620998FFF7C4FCFFE70AB0AE
:100CA00080BD000080B584B00290029820B9FFE7B3
:100CB00001208DF80F00E0E0029890F8200020B9A4
:100CC000FFE7029800F0DEF8FFE702980168086885
:100CD00040F00100086000F0F3FB0190FFE702988C
:100CE00000684068C007A8B9FFE700F0E9FB019978
:100CF000401A0B280DD3FFE70299486A40F40030F0
:100D000048620299052081F8200001208DF80F002B
:100D1000B3E0E4E702980168086820F00200086088
:100D200000F0CEFB0190FFE7029800684068800762
:100D3000002815D5FFE700F0C3FB0199401A0B28E6
:100D40000DD3FFE70299486A40F4003048620299E7
:100D5000052081F8200001208DF80F008DE0E3E7E9
:100D60000298007E012807D1FFE702980168086811
:100D700040F08000086006E002980168086820F0F2
:100D800080000860FFE70298407E012807D1FFE756
:100D900002980168086840F04000086006E0029888
:100DA0000168086820F040000860FFE70298807E34
:100DB000012807D1FFE702980168086840F0200089
:100DC000086006E002980168086820F020000860CA
:100DD000FFE70298C07E012807D1FFE7029801686B
:100DE000086820F01000086006E0029801680868B2
:100DF00040F010000860FFE70298007F012807D14B
:100E0000FFE702980168086840F00800086006E003
:100E100002980168086820F008000860FFE702985F
:100E2000407F012807D1FFE702980168086840F079
:100E30000400086006E002980168086820F00400D9
:100E40000860FFE7029B19685A689868D3F80CC0DD
:100E500040EA0C00D3F810C040EA0C005B6918436C
:100E6000013A1043C861029900204862029A0121A8
:100E700082F820108DF80F00FFE79DF80F0004B0F6
:100E800080BD000080B58EB00D9000200C900B90BE
:100E90000A9009900D98006846F20041C4F20001E2
:100EA000884261D1FFE7FFE741F21C00C4F2020073
:100EB000016841F000710160006800F00070089066
:100EC0000898FFE7FFE741F21800C4F2020001684A
:100ED00041F008010160006800F0080007900798E1
:100EE000FFE74FF48070099000200A900B9040F6C5
:100EF0000040C4F20100049009A9059100F0F0F847
:100F0000049805994FF40072099202220A92032272
:100F10000C9200F0E5F8FFE70421C4F20101086833
:100F20000690069820F4C0400690069840F0E060D5
:100F30000690069840F48040069006980860FFE707
:100F4000142001900A210022029200F055FB019822
:100F500000F048FB029A162003900B2100F04CFB96
:100F6000039800F03FFBFFE70EB080BD81B000901A
:100F700001B0704780B582B00190019840F27802CC
:100F8000C2F2000240F27003C2F200030021FFF738
:100F90004DFB90B9FFE740F27000C2F20000C0794B
:100FA00040F2E501C2F20001087041F60040C4F2CF
:100FB0000100402100F058FAFFE702B080BD0000B8
:100FC00081B0009001B0704781B0009001B07047CF
:100FD00081B0009001B0704780B584B00290029853
:100FE00090F8200001282FD1FFE70299022081F814
:100FF000200002980168086820F00100086000F0F5
:101000005FFA0190FFE7029800684068C007A8B146
:10101000FFE700F055FA0199401A0B280DD3FFE7BE
:101020000299486A40F4003048620299052081F82C
:10103000200001208DF80F000FE0E4E70299002066
:1010400048628DF80F0008E00299486A40F40020D9
:10105000486201208DF80F00FFE79DF80F0004B0F3
:1010600080BD000081B0009001B0704781B0009059
:1010700001B0704781B0009001B0704781B000901E
:1010800001B0704781B0009001B0704781B000900E
:1010900001B0704781B0009001B0704780B584B056
:1010A000039000F00DFA029003980190019801302E
:1010B00048B1FFE740F20400C2F200000178019855
:1010C00008440190FFE7FFE700F0FAF90299401A9F
:1010D0000199884201D2FFE7F6E704B080BD000025
:1010E00092B01190109100200F900B90FFE7109894
:1010F00000680F99C840002800F09B81FFE70F9916
:10110000012088400E90109800680E9908400D90BC
:101110000D980E99884240F08881FFE7109840684A
:101120000790002851D0FFE7079801283AD0FFE741
:10113000079802283FD0FFE7079803285FD0FFE712
:101140000798112832D0FFE70798122838D0FFE718
:1011500007980021C1F21101884236D0FFE70798B5
:101160000021C1F2120188422FD0FFE70798002129
:10117000C1F22101884228D0FFE707980021C1F27F
:101180002201884221D0FFE707980021C1F23101F6
:1011900088421AD0FFE707980021C1F23201884245
:1011A00013D02FE01098C0680B902CE01098C06806
:1011B00004300B9027E01098C06808300B9022E0B4
:1011C0001098C0680C300B901DE01098806818B91A
:1011D000FFE704200B9011E010988068012806D1E9
:1011E000FFE708200B900E981199086105E0082090
:1011F0000B900E9811994861FFE7FFE703E000208C
:101200000B9000E0FFE70D98FF2803D8FFE7119847
:10121000069003E0119804300690FFE706980A90C4
:101220000D98FF2804D8FFE70F988000059006E08E
:101230000F996FF01F0000EB81000590FFE7059804
:1012400009900A980068099A0F21914088430B99E8
:10125000914008430A9908601098C079C006002898
:1012600040F1E280FFE7FFE741F21800C4F202001C
:10127000016841F001010160006800F00100089080
:101280000898FFE70F9820F003000821C4F201013D
:1012900040580C900F9800F0030081000F2000FAD6
:1012A00001F10C9888430C90119840F60001C4F2AB
:1012B0000101884203D1FFE70020049042E0119829
:1012C00040F60041C4F20101884203D1FFE701204A
:1012D000039034E0119841F20001C4F20101884208
:1012E00003D1FFE70220029026E0119841F200416D
:1012F000C4F20101884203D1FFE70320019018E006
:10130000119841F60001C4F20101884203D1FFE7C0
:10131000042000900AE0119941F60042C4F2010253
:101320000620914208BF05200090FFE70098019039
:10133000FFE701980290FFE702980390FFE7039808
:101340000490FFE704980F9901F00301890000FA67
:1013500001F10C9808430C900C980F9921F00301AF
:101360000822C4F20102885010988079C006002833
:1013700009D5FFE70D9A40F20841C4F2010108685F
:101380001043086008E00D9A40F20841C4F20101E0
:10139000086890430860FFE710988079800600286D
:1013A00009D5FFE70D9A40F20C41C4F2010108682B
:1013B0001043086008E00D9A40F20C41C4F20101AC
:1013C000086890430860FFE710988079800700283C
:1013D00009D5FFE70D9A40F20441C4F20101086803
:1013E0001043086008E00D9A40F20441C4F2010184
:1013F000086890430860FFE710988079C00748B1FB
:10140000FFE70D9A40F20041C4F201010868104361
:10141000086008E00D9A40F20041C4F2010108683A
:1014200090430860FFE7FFE7FFE70F9801300F9058
:101430005DE612B07047000082B00190ADF8021076
:1014400001988068BDF80210084204D0FFE701202F
:101450008DF8010003E000208DF80100FFE79DF802
:10146000010002B07047000083B00290ADF8061092
:101470000298C0680090009ABDF8060002EA0001D8
:10148000904340EA01400299086103B070470000B0
:1014900082B00190ADF802108DF801209DF8010096
:1014A00028B1FFE7BDF802000199086105E0BDF829
:1014B0000200000401990861FFE702B070470000D4
:1014C00040F2E800C2F200000068704740F20400F9
:1014D000C2F20000027840F2E801C2F2000108689E
:1014E000104408607047000080B542F20001C4F269
:1014F0000201086840F010000860032000F096F830
:101500000F2000F005F800F03BF8002080BD00003F
:1015100080B582B0009040F20000C2F20000006886
:1015200040F20401C2F200010A784FF47A71B1FB73
:10153000F2F1B0FBF1F000F049FD20B1FFE701202E
:101540008DF8070018E000980F280DD8FFE70099E4
:101550004FF0FF30002200F04FF8009840F20801F1
:10156000C2F20001086003E001208DF8070003E0EB
:1015700000208DF80700FFE79DF8070002B080BD4E
:1015800083B0FFE741F21800C4F20200016841F0A5
:1015900001010160006800F0010002900298FFE77D
:1015A000FFE741F21C00C4F20200016841F08051E3
:1015B0000160006800F0805001900198FFE7FFE7AC
:1015C0000421C4F2010108680090009820F0E06056
:1015D0000090009840F00070009000980860FFE7CD
:1015E00003B0704780B582B08DF807009DF9070001
:1015F00000F06CFE02B080BD80B586B08DF817009B
:10160000049103920020029000F078FE02909DF970
:101610001700019002980499039A00F08FFD01468B
:10162000019800F073FE06B080BD000080B582B066
:101630000190019800F08CFE02B080BD80B584B0AE
:1016400002900191029820B9FFE701208DF80F0068
:101650001BE1019842F20001C4F20201096801F0A5
:101660000701884216D9FFE742F20000C4F20200E7
:10167000016821F00701019A11430160006800F040
:1016800007000199884204D0FFE701208DF80F0080
:10169000FBE0FFE702980078800700282AD5FFE7E3
:1016A000029800784007002809D5FFE741F20401BD
:1016B000C4F20201086840F4E0600860FFE70298A5
:1016C00000780007002809D5FFE741F20401C4F2C1
:1016D0000201086840F460500860FFE741F204012D
:1016E000C4F20201086820F0F000029A92681043E8
:1016F0000860FFE702980078C007002860D0FFE785
:101700000298406801280ED1FFE741F20000C4F2C0
:10171000020000688003002804D4FFE701208DF850
:101720000F00B2E021E00298406802280ED1FFE7E6
:1017300041F20000C4F2020000688001002804D4D5
:10174000FFE701208DF80F009FE00DE041F200005F
:10175000C4F2020000688007002804D4FFE70120DB
:101760008DF80F0091E0FFE7FFE741F20401C4F2BA
:101770000201086820F00300029A526810430860D2
:10178000FFF79EFE0090FFE741F20400C4F2020062
:10179000006800F00C0002994968B0EB810F0ED090
:1017A000FFE7FFF78DFE0099401A41F28931884228
:1017B00004D3FFE703208DF80F0066E0E4E7FFE7BE
:1017C000019842F20001C4F20201096801F0070128
:1017D000884216D2FFE742F20000C4F2020001681C
:1017E00021F00701019A11430160006800F0070031
:1017F0000199884204D0FFE701208DF80F0044E0F2
:10180000FFE702980078400700280CD5FFE741F277
:101810000401C4F20201086820F4E060029AD26870
:1018200010430860FFE702980078000700280DD5F4
:10183000FFE741F20401C4F20201086820F460509D
:10184000029A126940EAC2000860FFE700F022F83D
:1018500041F20401C4F202010968C9B20A0942F264
:101860005851C0F60001895CC84040F20001C2F244
:101870000001086040F20800C2F200000068FFF7B3
:1018800047FE00208DF80F00FFE79DF80F0004B021
:1018900080BD000086B00020059004900390029067
:1018A000019041F20400C4F202000068059005981E
:1018B00000F00C000146009100283FD0FFE700989F
:1018C000042804D0FFE70098082806D037E041F24A
:1018D0000020C0F27A00019037E00598C0F3834100
:1018E00042F26850C0F60000405C02909DF816007D
:1018F000C007C0B1FFE741F20400C4F20200006873
:10190000C0F3404142F27850C0F60000405C0490C1
:10191000029841F20021C0F27A0148430499B0FBD9
:10192000F1F0039007E0029840F60011C0F23D018B
:1019300048430390FFE70398019006E0FFE741F278
:101940000020C0F27A000190FFE7019806B07047CE
:1019500080B586B00490049820B9FFE701208DF887
:1019600017002EE304980078C007002800F0AE802E
:10197000FFE741F20400C4F20200006800F00C002E
:10198000042813D0FFE741F20400C4F2020000680B
:1019900000F00C0008281BD1FFE741F20400C4F25C
:1019A00002000068C003002812D5FFE741F20000E2
:1019B000C4F2020000688003002808D5FFE70498FD
:1019C000406820B9FFE701208DF81700F9E27CE0BC
:1019D000FFE704984068B0F5803F09D1FFE741F286
:1019E0000001C4F20201086840F48030086032E06F
:1019F0000498406868B9FFE741F20001C4F20201AF
:101A0000086820F480300860086820F480200860AE
:101A100020E004984068B0F5A02F0DD1FFE741F217
:101A20000001C4F20201086840F4802008600868E0
:101A300040F4803008600CE041F20001C4F2020181
:101A4000086820F480300860086820F4802008606E
:101A5000FFE7FFE7FFE7FFE704984068D0B1FFE743
:101A6000FFF72EFD0390FFE741F20000C4F20200F1
:101A70000068800300280CD4FFE7FFF721FD0399DD
:101A8000401A652804D3FFE703208DF8170098E279
:101A9000EAE719E0FFF714FD0390FFE741F20000C9
:101AA000C4F202000068800300280CD5FFE7FFF7AE
:101AB00007FD0399401A652804D3FFE703208DF83A
:101AC00017007EE2EAE7FFE7FFE7FFE70498007808
:101AD0008007002840F18D80FFE741F20400C4F246
:101AE0000200006810F00C0F13D0FFE741F2040071
:101AF000C4F20200006800F00C00082829D1FFE7BA
:101B000041F20400C4F202000068C003002820D49F
:101B1000FFE741F20000C4F20200006880070028DD
:101B200009D5FFE704980069012804D0FFE70120E8
:101B30008DF8170045E241F20001C4F20201086885
:101B400020F0F800049A526940EAC2000860FFE7FA
:101B50004EE00498006958B3FFE70021C4F2422127
:101B600001200860FFF7ACFC0390FFE741F20000A2
:101B7000C4F202000068800700280CD4FFE7FFF7DA
:101B80009FFC0399401A032804D3FFE703208DF834
:101B9000170016E2EAE741F20001C4F20201086808
:101BA00020F0F800049A526940EAC20008601EE082
:101BB0000021C4F2422100200860FFF781FC03905D
:101BC000FFE741F20000C4F202000068800700282D
:101BD0000CD5FFE7FFF774FC0399401A032804D3E0
:101BE000FFE703208DF81700EBE1EAE7FFE7FFE7E7
:101BF000FFE7049800780007002848D5FFE704981D
:101C0000806918B3FFE740F28041C4F2422101200D
:101C10000860FFF755FC0390FFE741F22400C4F28F
:101C200002000068800700280CD4FFE7FFF748FC9B
:101C30000399401A032804D3FFE703208DF8170007
:101C4000BFE1EAE7012000F0B1FA1FE040F2804175
:101C5000C4F2422100200860FFF732FC0390FFE746
:101C600041F22400C4F202000068800700280CD56D
:101C7000FFE7FFF725FC0399401A032804D3FFE789
:101C800003208DF817009CE1EAE7FFE7FFE70498DF
:101C900000784007002840F1D880FFE700208DF849
:101CA000070041F21C00C4F202000068C0000028D6
:101CB00013D4FFE7FFE741F21C00C4F20200016801
:101CC00041F080510160006800F080500090009861
:101CD000FFE701208DF80700FFE747F20000C4F29C
:101CE00000000068C005002822D4FFE747F2000189
:101CF000C4F20001086840F480700860FFF7E0FB60
:101D00000390FFE747F20000C4F200000068C0053E
:101D100000280CD4FFE7FFF7D3FB0399401A65288E
:101D200004D3FFE703208DF817004AE1EAE7FFE755
:101D3000FFE70498C068012809D1FFE741F22001BC
:101D4000C4F20201086840F00100086031E0049824
:101D5000C06868B9FFE741F22001C4F202010868D7
:101D600020F001000860086820F0040008601FE00F
:101D70000498C06805280DD1FFE741F22001C4F2A4
:101D80000201086840F004000860086840F00100A3
:101D900008600CE041F22001C4F20201086820F062
:101DA00001000860086820F004000860FFE7FFE712
:101DB000FFE7FFE70498C068E0B1FFE7FFF780FBAB
:101DC0000390FFE741F22000C4F2020000688007A0
:101DD00000280ED4FFE7FFF773FB0399401A41F286
:101DE0008931884204D3FFE703208DF81700E8E02B
:101DF000E8E71BE0FFF764FB0390FFE741F22000F8
:101E0000C4F202000068800700280ED5FFE7FFF744
:101E100057FB0399401A41F28931884204D3FFE706
:101E200003208DF81700CCE0E8E7FFE79DF80700F6
:101E3000012809D1FFE741F21C01C4F20201086840
:101E400020F080500860FFE7FFE70498C069002891
:101E500000F0B380FFE741F20400C4F20200006822
:101E600000F00C00082800F08280FFE70498C069A9
:101E700002285CD1FFE76021C4F242210020086003
:101E8000FFF71EFB0390FFE741F20000C4F20200DF
:101E90000068800100280CD5FFE7FFF711FB0399CC
:101EA000401A032804D3FFE703208DF8170088E0C9
:101EB000EAE70498006AB0F5803F0CD1FFE741F2F1
:101EC0000401C4F20201086820F40030049A926808
:101ED00010430860FFE741F20401C4F20201086800
:101EE00020F47410049B1A6A5B6A1A43104308605A
:101EF0006021C4F2422101200860FFF7E1FA03905B
:101F0000FFE741F20000C4F20200006880010028EF
:101F10000CD4FFE7FFF7D4FA0399401A032804D33F
:101F2000FFE703208DF817004BE0EAE71EE0602191
:101F3000C4F2422100200860FFF7C2FA0390FFE7D5
:101F400041F20000C4F202000068800100280CD5B4
:101F5000FFE7FFF7B5FA0399401A032804D3FFE718
:101F600003208DF817002CE0EAE7FFE724E004984F
:101F7000C069012804D1FFE701208DF8170020E097
:101F800041F20400C4F2020000680290029800F4DA
:101F900080300499096A884208D1FFE7029800F46A
:101FA00070100499496A884204D0FFE701208DF837
:101FB000170006E0FFE7FFE7FFE700208DF81700B6
:101FC000FFE79DF8170006B080BD000080B582B025
:101FD0000190019800F00AF902B080BDFFE7FEE72A
:101FE00080B58CB040F2BC00C2F20000019046F215
:101FF0000041C4F2000101600421416000228260BE
:10200000C2604FF4402101614FF4801141610276BA
:10201000012141768276C17602774177FEF742FE52
:1020200018B1FFE7FEF762F9FFE700210791089179
:1020300001200990029103910491059106910A9063
:1020400040F2BC00C2F2000002A9FEF72DFA18B15E
:10205000FFE7FEF74BF9FFE70CB080BD80B58EB00F
:1020600000200D900C900B900A90FFE741F21800B1
:10207000C4F20200016841F080010160006800F0D4
:10208000800009900998FFE7FFE741F21800C4F2C9
:102090000200016841F480710160006800F4807002
:1020A00008900898FFE7FFE741F21800C4F2020029
:1020B000016841F004010160006800F0040007902D
:1020C0000798FFE7FFE741F21800C4F20200016839
:1020D00041F008010160006800F0080006900698D1
:1020E000FFE741F60040C4F2010002904FF4707126
:1020F000019100220392FFF7CBF9019A029803990C
:102100000A92012204920B920C9102210D910AA9CC
:102110000591FEF7E5FF039A0498059940230A9379
:102120000B920C9042F20000C4F20100FEF7D8FFBF
:102130000EB080BDFFE7FEE7FFE7FEE788B007903F
:1021400006910592079800F0070004900498C0F1EA
:102150000700052803D3FFE70420019004E004985A
:10216000C0F107000190FFE7019803900498043044
:10217000062803D8FFE70020009003E00498033806
:102180000090FFE70098029006980399012202FA56
:1021900001F101390840029B984005999A40013AA3
:1021A0001140084308B070477047000082B00190AA
:1021B000019840F20001C2F200010968C90844F622
:1021C000D352C1F26202A1FB022189094843009067
:1021D000FFE700BFFFE70098411E00910028F8D1FB
:1021E000FFE702B0704700007047000080B582B082
:1021F000009000980138B0F1807F03D3FFE7012001
:10220000019019E0009801384EF21401CEF200015D
:1022100008604FF0FF300F2100F078F84EF21801FF
:10222000CEF20001002008604EF21002CEF2000251
:10223000072111600190FFE7019802B080BD000006
:1022400080B5FFF743F980BD80B590B006A8009037
:102250002821FDF7DBFF00980023059304930393E7
:1022600002930193012206924FF480310791089363
:102270000A9202220D920E914FF4E0110F91FFF796
:1022800067FB18B1FFE7FEF731F8FFE70F20019079
:1022900002210291002003904FF480620492059085
:1022A00001A8FFF7CBF918B1FFE7FEF71FF8FFE72A
:1022B00010B080BD7047000080B540F2BC00C2F293
:1022C0000000FEF7F5FA80BDFFE7FEE781B08DF86C
:1022D00003009DF9030000280ED4FFE79DF90310C9
:1022E00001F01F02012090404A094EF20011CEF287
:1022F000000141F82200FFE701B070474EF60C5094
:10230000CEF200000068C0F30220704782B08DF862
:10231000070000919DF9070000280AD4FFE7009804
:1023200000019DF907104EF20042CEF200028854DF
:102330000BE0009800019DF8071001F00F014EF628
:102340001452CEF200028854FFE702B0704700003A
:1023500083B00290029800F0070000904EF60C51F6
:10236000CEF200010868019001984FF6FF0210407C
:1023700001900198009A40EA02200022C0F2FA522D
:10238000104301900198086003B0704780B586B093
:102390008DF817009DF8170001460491012808D018
:1023A000FFE70498022814D0FFE70498032821D0FF
:1023B00031E041F60040C4F2010003908021012287
:1023C000FFF766F803984FF440710022FFF760F8BA
:1023D0002BE041F60040C4F2010002904FF48071FE
:1023E0000122FFF755F802984FF420710022FFF701
:1023F0004FF81AE041F60040C4F2010001904FF49A
:1024000000710122FFF744F801984FF4C0710022D7
:10241000FFF73EF809E041F60040C4F201004FF436
:1024200060710022FFF734F8FFE706B080BD0000BE
:1024300080B584B0002001900390FFF755F8FFF7B6
:1024400003FFFFF70BFEFFF7CBFD019840F29C0165
:10245000C2F2000140F211120A604860C860886050
:1024600008220A61087540F2BC00C2F20000029026
:10247000FEF7B2FD029848F60241FDF73FFFFFE785
:1024800040F2E500C2F200000078FFF77FFF42F261
:102490000000C4F201004021FEF7CEFF014640F2E9
:1024A000B800C2F2000001700078E8B9FFE7FFE76A
:1024B00040F2B800C2F20000007868B9FFE742F2CB
:1024C0000000C4F201004021FEF7B6FF40F2B8015F
:1024D000C2F200010870EBE740F2E401C2F2000131
:1024E000087801300870FFE740F2E400C2F2000013
:1024F0000078032807DBFFE740F2E401C2F20001A5
:1025000000200870FFE740F2E400C2F2000000780B
:1025100040F29401C2F20001C87140F2BC00C2F264
:102520000000FEF78DF998B1FFE740F2BC00C2F25F
:10253000000040F29C01C2F2000140F29402C2F29B
:10254000000240F2B403C2F20003FDF701FFFFE70F
:10255000C820FEF7A3FD93E7000000000000000084
:102560000102030406070809020304050607080917
:102570000A0B0C0D0E0F101001020000A025000820
:1025800000000020100000006C010008B0250008C9
:1025900010000020E0060000880100080000000094
:1025A0000024F40001000000100000000000000002
:0400000508000131BD
:00000001FF
